:1000000080410020190100001501000015010000C9
:1000100000000000000000000000000000000000E0
:1000200000000000000000000000000015010000BA
:100030000000000000000000150100001501000094
:10004000150100001501000015010000CD3700006A
:100050001148000015010000150100001501000005
:10006000150100006948000015010000DD170000BF
:10007000150100005919000015010000FD440000A1
:10008000150100001947000015010000DD430000C4
:10009000150100000000000000000000050B00003A
:1000A00015010000150100001501000015010000F8
:1000B0000000000010B5064C2378002B07D1054B3B
:1000C000002B02D0044800E000BF0123237010BDC4
:1000D000E00400200000000014F90000084B10B5F7
:1000E000002B03D00749084800E000BF0748036819
:1000F000002B00D110BD064B002BFBD09847F9E731
:1001000000000000E404002014F9000014F90000CD
:1001100000000000FEE70000F8B52A4A2A4B9A4288
:1001200011D01A00294B9A420DD2294A03339B1A47
:100130009B0801339B000022234822498C5884509D
:1001400004329A42FAD1234A234B9A420AD2D34329
:1001500021495B1803218B4304339B18002102C201
:100160009342FCD11D4AFF211D4B8B439360FD3907
:1001700090235B001B4AD1501B4AD3780325AB4325
:1001800002242343D370D3780C27BB430826334380
:10019000D370164B987B30229043202210439873E3
:1001A000997BB943314399739A7BAA4322439A734B
:1001B0000F4A536880210B4353600E4B98470E4BF8
:1001C0009847FEE714F9000000000020DC0400203E
:1001D00004000020E00400208021002000ED00E069
:1001E0000000000000700041005000410048004144
:1001F000004000418D8B0000D53F0000014A024BBA
:100200001A60704740420F000000002030B50028FF
:1002100015D004788C4205DA01704624195D012559
:100220002943195504780021944206DD02704631B5
:100230005A5C022002435A540021080030BD0121BB
:100240004942FAE700280AD0836C002B0AD0C36C1D
:10025000002B0AD0036D584258414042704701209C
:100260004042FBE701204042F8E701204042F5E729
:1002700030B583B004000D000800194B98470028E2
:1002800016D17F22E30FD117A2424B411B01EA781E
:100290009A420DD0EB70687801236A460732F32149
:1002A000AC6CA0475423E854002803D002204042FD
:1002B00003B030BD6B46DA1D137810218B43E8780C
:1002C00001400B431370687801237321EC6CA04745
:1002D0005422A8540028EBD002204042E8E7C04650
:1002E0004502000030B583B004000D4B984700284C
:1002F00001D003B030BD607801236A460732F32194
:10030000A56CA8475422A054002805D16B46DA7981
:1003100010231340E370ECE702204042E9E7C046B7
:10032000450200000D4A0E4B1A600E4B0E4A9A62AF
:100330000E4A9A620E4A9A620E4999620E4A9A626F
:100340000E4A9A620E4A9A620E4A9A620E480F4A02
:100350001060A82299500E4999507047C0D00108EA
:1003600008440041004400410020015001000154B4
:1003700000030152000C0153040001D5CA0001D250
:10038000300001D3000301D60400800088440041FE
:10039000400001D010B5884B9A69042002439A614D
:1003A000864A1268D2049969520E1204844C214084
:1003B0000A439A619A6902210A439A61196A814A39
:1003C0001140196280494A681E24A24302434A60D0
:1003D00000229A8419001032CB681A42FCD0764968
:1003E0007A4BCB62754B1B689B0E9B02784A126856
:1003F0009205920D13438B62764B8B841022CB684F
:100400001A42FCD080225200734B9A601A00537833
:10041000DB09FCD1714A704B5A601A005378DB0932
:10042000FCD16F4A6C4B5A801A005378DB09FCD11F
:100430000222FF32684B9A601A005378DB09FCD124
:10044000684A654B5A601A005378DB09FCD1664A4A
:10045000614B5A801A005378DB09FCD1812252008B
:100460005D4B9A601A005378DB09FCD15F4A5A4B06
:100470005A601A0053785BB2002BFBDB5C4A564B88
:100480005A801A0053785BB2002BFBDB594A524B5F
:100490009A601A005378DB09FCD1574A4E4B5A60D8
:1004A0001A005378DB09FCD1544A4B4B5A801A008E
:1004B0005378DB09FCD1524A474B9A601A005378B3
:1004C000DB09FCD14F4A444B5A601A005378DB09D0
:1004D000FCD14D4A404B5A801A005378DB09FCD1BD
:1004E0004A4A3D4B5A801A005378DB09FCD1484AEE
:1004F000394B5A801A005378DB09FCD1454A364BF8
:100500009A601A005378DB09FCD1434A324B5A6097
:100510001A005378DB09FCD1404A2F4B5A801A004D
:100520005378DB09FCD13E4A2B4B9A601A00537872
:10053000DB09FCD13B4A284B5A601A005378DB098F
:10054000FCD1394A244B5A801A005378DB09FCD17C
:10055000364A214B9A601A005378DB09FCD1344AA1
:100560001D4B5A601A005378DB09FCD1314A1A4BF3
:100570005A801A005378DB09FCD12F4A164B5A8057
:100580001A005378DB09FCD1C2229200124B9A6008
:100590001A005378DB09FCD1284A0F4B5A601A0025
:1005A0005378DB09FCD1264A0B4B5A801A0053784A
:1005B000DB09FCD110BDC04600080040246080006B
:1005C000FFFF80FFFFFCFFFF0040004180BB0000F9
:1005D000286080000A050000000C004000070300AE
:1005E0001540000001040300034100000206010061
:1005F0001442000003200000030401000443000033
:100600000414000004060300164400001744000010
:100610001844000005280000050603001A450000E4
:1006200006500000060603001B46000007040000F9
:10063000070603001C4700000547000008060300EA
:100640001E480000194A116880235B000B431360A9
:10065000174A1168174B0B431360174A93685B06E0
:10066000FCD46322154B1A60134A93681B06FCD412
:100670000022134B1A60104A93685B05FCD40E4BA2
:1006800000229A62996A012001439962DA6A024360
:10069000DA621A6802210A431A601A0093689B07FB
:1006A000FCD480221202074B1A60704720040040DD
:1006B0003C20004207000F00002000424020004282
:1006C0004C20004200E100E0194A11688023DB0061
:1006D0000B431360174A1168174B0B431360174AFB
:1006E00093685B06FCD4FF22154B1A60134A93688B
:1006F0001B06FCD40022134B1A60104A9368DB05DA
:10070000FCD40E4B00229A62996A0120014399623F
:10071000DA6A0243DA621A6802210A431A601A008E
:1007200093689B07FCD480229202074B1A607047A3
:10073000200400403C28004207000F00002800422F
:10074000402800424428004200E100E01A4A1168B3
:1007500080235B010B431360184B1A8802218A43E4
:100760001A801A8802310A431A801A00D37BDB09E7
:10077000FCD1124A138820210B431380D37BDB0961
:10078000FCD17C220D4B1A761A00D37BDB09FCD1FD
:100790000A4B00225A735A7B10210A435A731A8853
:1007A00007490A431A801A00D37BDB09FCD1802257
:1007B0001203044B1A6070472004004000300042CE
:1007C000020D000000E100E0104A936940210B4354
:1007D00093610F4B0F4A1A601968802212050A4371
:1007E0001A60902212040C4B1A600C4B1A780221EA
:1007F0000A431A7000210A4A11600A490A4A116024
:100800005B781022094B1A607047C0460004004014
:1008100018180040002000021C180040001800407A
:1008200010180040482000000C18004000E100E0D3
:10083000264A116880235B020B431360244B1B681C
:100840005B01E022D2001340224A5168490112683C
:10085000D20E0A43FF210A4013431F4A1385012386
:100860001E4A137097391E4A11701E4A13701A4A95
:10087000537EDB09FCD1882252001B4B1A80164A9A
:10088000537EDB09FCD1194A194B1A60124A537E78
:10089000DB09FCD10F22174B1A7001200E3A164BC0
:1008A0001A700D4B197E014319762A215A5C0243B6
:1008B0005A541A7802210A431A701A00537EDB092F
:1008C000FCD1802212040D4B1A60704720040040B6
:1008D000246080002060800000400042014000420F
:1008E000024000420340004204400042021900005E
:1008F00010400042184000421740004200E100E072
:100900003D4A13687C210B4313603C4A3C4B1A6000
:10091000802252003B4B1A60394AD3695B07FCD4F2
:100920000522374BDA601A00D3695B07FCD4344ADE
:10093000136802210B43136011000222CB691A4293
:10094000FCD12F4A538B30218B4310210B4353830F
:10095000D3695B07FCD40322294B9A752A4A2B4B97
:100960001A601A00D3695B07FCD4284B06221A735D
:100970001A6802210A431A6019000222CB691A423E
:10098000FCD1234B234A1A60234A9A818022920287
:100990005A601A00D3695B07FCD41D4B04229A7578
:1009A0000B321A76802109011C4A11601A68022153
:1009B0000A431A6019000222CB691A42FCD1184B73
:1009C000144A1A60144A9A81C02292025A601A008C
:1009D000D3695B07FCD4124B06229A7580218901EA
:1009E0000E4A11601A6802210A431A601900022295
:1009F000CB691A42FCD1704720040040140020004B
:100A000000080042040800420C000200000C0042F2
:100A10000010004204003140B29DFFFF00E100E001
:100A200000180042134A136820210B43136001226F
:100A3000114B1A801A00937ADB09FCD11388DB076B
:100A4000F9D440220C4BDA710C4A0D4B1A800A4A39
:100A5000937ADB09FCD10B4A074B1A801A00937A70
:100A6000DB09FCD1044A937ADB09FCD10822064B4E
:100A70001A60704718040040001400400080FFFF17
:100A8000021400400A0A000000E100E00138FDD134
:100A900070470000F8B5051E09DD0024FA26B601EE
:100AA000034F3000B8470134A4B2AC42F9DBF8BDC3
:100AB0008D0A000010B580B2014B984710BDC046AA
:100AC000950A000000220B4B1A70C8235B011843E3
:100AD000094B1860094A537EDB09FCD10222084BFE
:100AE0001A70044A1378002BFCD0044B588B80B248
:100AF0007047C04600050020104000420040004200
:100B00000C400042064B1B7EDB0707D50122054B3C
:100B10001A70034A137E01210B4313767047C046B7
:100B2000004000420005002010B50139002908DD11
:100B30000023C25C445CC4544254013301398B42EB
:100B4000F7DB10BDF0B5DE4657464646C0B582B06D
:100B500005000F000191924600282FD00122531A60
:100B60009846174B9B46174E4346DC190A2128002E
:100B7000D847303139700A212800B04705000137C5
:100B80000028F1D154450BDA019A130094466444CD
:100B900053441A003023237001349442FBD154464D
:100BA0002100019D2800084B984700232B55200069
:100BB00002B01CBC90469A46A346F0BD0400E1E793
:100BC000295F00005D5D0000290B0000F0B5D646EE
:100BD0004F4680B585B00090019115001C1E0ED1C6
:100BE00000980199314B9847314B984701222900D1
:100BF000304B984705B00CBC91469A46F0BD2E4F3D
:100C00001800B8470290039102000B0000202B4906
:100C10002B4EB146B0472B4B9A46009A019BD047CA
:100C2000224B984700900191029A039B0020234990
:100C3000B04702000B0000980199234EB047009086
:100C400001911B4B98470600B84702000B00009823
:100C500001991E4FB84700900191012229003000F0
:100C6000144B98470004060C2E23AB55029A039BA5
:100C700000201249C847009A019BD047009001917B
:100C800000220E4B124FB84700280AD1701C2D18B5
:100C900000980199064B984722002900054B984778
:100CA000A8E700220B4B00920193EFE7C94900002F
:100CB0009D840000450B00000585000000002440D5
:100CC000754A000031790000C9700000317E0000D3
:100CD000555F00000000F03FF0B5DE4657464E4637
:100CE0004546E0B595B00400858F132D06DC15B0A0
:100CF0003CBC90469946A246AB46F0BD0E22002170
:100D000010A8DD4B984768239C46A44463460C9387
:100D10000E2210A96046D94EB04776239C46A444C3
:100D200063460D930E2210A96046B047A268E3689F
:100D300000920193A262E3622269636902920393C3
:100D400022636363A369984600220023A260E360E4
:100D50000022CB4B226163610026A661638C9BB2AB
:100D600004936387238C9BB206932387E3699B4696
:100D700066848023DB0099462384E6612068266030
:100D8000C04F2900B8478246A06529004046B847B1
:100D90008046E06529005846B8472066A687CA45C0
:100DA00001D90023A3658023DB00984501D90023E6
:100DB000E3658023DB00984201D900232366B24A11
:100DC000B24B029E039F30003900B14DA847002866
:100DD00000D0CBE10022AF4B30003900A8470028FB
:100DE00000D0BBE10022AC4B30003900A8470028FE
:100DF00000D0B5E10022A94B30003900A8470028F7
:100E000000D0AFE10022A64B30003900A8470028EF
:100E100000D0A9E10022A34B30003900A8470623E7
:100E2000002800D0A3E19227FF3700229E4B0098B4
:100E300001999E4DA847002800D0ACE1924A9C4BF6
:100E400000980199A847002800D09AE18E4A994B52
:100E500000980199A847002800D094E1964A974B42
:100E600000980199A847002800D08EE1924A944B3F
:100E700000980199A847002800D088E1914A924B38
:100E800000980199A847002800D082E18D4A8F4B35
:100E900000980199A8470623002800D07CE1FA2693
:100EA0007600069A1300362A00DC88E19A2A00DCD4
:100EB0007DE1FE2A00DC7CE1B1225200934200DC9D
:100EC00079E14632934200DC77E15032934200DC14
:100ED0006BE19223FF330F93049A1300362A00DC50
:100EE00082E19A2A00DC75E1FE2A00DC74E1B1227D
:100EF0005200934200DC71E14632934200DC6FE124
:100F00005032934200DC6DE16432FA2149000E91C7
:100F1000934200DC5CE16E4D3800A84708900991CF
:100F20003000A847089A099B6A4EB0470A900B9177
:100F3000029A039B00980199B04702000B000A989F
:100F40000B99654FB84700900191E06DA847029A50
:100F5000039BB04702000B0060498B460098019943
:100F6000D8475F4B9A46089A099BD0475D4B9946F4
:100F700098475D4B9846984787B26423E7520F988D
:100F8000A847009001910698A847029003910E98F7
:100F9000A847009A019BB047069007910498A8477C
:100FA000029A039BB04702000B00069807994A4E2D
:100FB000B04704900591206EA847029A039B454DC7
:100FC000A84702000B0004980599D847009A019B96
:100FD000D047C847C04780B26623E052434B9F4288
:100FE00000DC13E100226423E252404B984200DC13
:100FF00002E100226623E2526423E05A344B984710
:1010000006000F0000223A4B284DA847002800D0C8
:101010000BE10022374B30003900A847002800D0F0
:10102000F9E00022344B30003900A847002800D0F6
:10103000F3E00022314B30003900A847002800D0EF
:10104000EDE000222E4B30003900A847002800D0E8
:10105000E7E000222B4B30003900A847002800D0E1
:10106000E1E00022284B30003900A8470623002881
:1010700000D0C2E04AE0C046598C0000518D00000B
:1010800000009040495C0000333333333333284051
:10109000615F000000C0414000C04B4000D0624092
:1010A00000506F4000E8754000002840755F000068
:1010B00033B3414033B34B40CDCCCCCCCCCC6240ED
:1010C000CC4C6F406666666666E6754066467F4055
:1010D00089850000317E0000C97000003179000070
:1010E000A96A0000C94900007D600000E703000014
:1010F000000049400000594000C0624000006940C3
:1011000000C072400000794000407F400E225349E9
:101110000C98534B98476623E35A322B00DC92E03D
:10112000642B00DC85E0962B00DC84E0C82B00DC1F
:1011300083E096225200934200DC80E064329342C6
:1011400000DC7EE06432934271DD0E2243490D984B
:10115000434B984701228423E254C8E5022306E06A
:10116000032304E0042302E0052300E00123013B04
:101170005B013C4AD318186959693B4B984787B2C1
:1011800053E6012308E0022306E0032304E00423DE
:1011900002E0052300E000235B01324AD31898697E
:1011A000D969314B984786B27BE6062308E00223D3
:1011B00006E0032304E0042302E0052300E001230A
:1011C000013BDB00294AD31864331B880F9383E665
:1011D00006220AE0012208E0022206E0032204E0DF
:1011E000042202E0052200E00022D2001F4B9B18DF
:1011F00066331B880E938EE600239B001C4AD3188F
:1012000099690E220C98164B984784E7194B98421F
:1012100000DCF1E6EDE60123EFE70223EDE703232F
:10122000EBE70423E9E70523E7E70023E5E70623E7
:101230000AE0012308E0022306E0032304E004237C
:1012400002E0052300E000239B00094AD3189969B6
:101250000E220D98024B98477CE7C0461CF7000011
:10126000518D0000C0F500007D60000040F60000D8
:10127000C0F60000E7030000F0B5DE4657464E46D4
:101280004546E0B587B00025002302931F1C01935B
:101290001E1C254B04339B46244B9A46244B9946EF
:1012A000244C5B46E85AD0472349C847311C039079
:1012B000A047061C019B191C181CA047011C301CD0
:1012C000A0471E4EB04704900591381CB0471C4AF9
:1012D00090461C4A1C4BC04702000B001B4F049851
:1012E0000599B847049005910298B047184A194BE0
:1012F000C04702000B0004980599B847164B984761
:10130000094B10336A00D0500235019E039B0193B4
:10131000029F02900A2DC4D107B03CBC904699466A
:10132000A246AB46F0BDC046000500201D6A000085
:1013300015640000F1600000D0044A42F985000005
:1013400031790000C31E4EB05C57E2BFA96A0000AD
:10135000ACA1E18846E7F73F9D860000F0B5DE4688
:1013600057464E464546E0B587B000250023029318
:101370001F1C01931E1C264B2422944663449B464B
:10138000244B9A46244B9946244C5B46E85AD04756
:101390002349C847311C0390A047061C019B191C18
:1013A000181CA047011C301CA0471E4EB0470490DB
:1013B0000591381CB0471C4A90461C4A1C4BC0473C
:1013C00002000B001B4F04980599B8470490059143
:1013D0000298B047184A194BC04702000B00049806
:1013E0000599B847164B9847094B30336A00D050DF
:1013F0000235019E039B0193029F02900A2DC4D1E6
:1014000007B03CBC90469946A246AB46F0BDC046EC
:10141000000500201D6A000015640000F160000056
:10142000D0044A42F985000031790000C31E4EB055
:101430005C57E2BFA96A0000ACA1E18846E7F73F2C
:101440009D860000F0B5DE4657464E464546E0B55F
:1014500087B00025002302931F1C01931E1C264BFE
:101460004422944663449B46244B9A46244B994617
:10147000244C5B46E85AD0472349C847311C0390A7
:10148000A047061C019B191C181CA047011C301CFE
:10149000A0471E4EB04704900591381CB0471C4A27
:1014A00090461C4A1C4BC04702000B001B4F04987F
:1014B0000599B847049005910298B047184A194B0E
:1014C000C04702000B0004980599B847164B98478F
:1014D000094B50336A00D0500235019E039B0193A3
:1014E000029F02900A2DC4D107B03CBC9046994699
:1014F000A246AB46F0BDC046000500201D6A0000B4
:1015000015640000F1600000D0044A42F985000033
:1015100031790000C31E4EB05C57E2BFA96A0000DB
:10152000ACA1E18846E7F73F9D860000F0B5DE46B6
:1015300057464E464546E0B585B00500C38F9BB281
:10154000032B00DC80E0006CE98F89B2424FB84782
:101550000190E864686CE98F89B2B8470600286595
:10156000A86CE98F89B2B847686500232B646B6467
:10157000AB64EB87394A0432384F3C00243444379B
:10158000518811801953D95302320233082BF7D1F5
:101590006B469C88314B9C81B6B29E8580B24433A9
:1015A00018818523EB5C002B0ED000228523EA54A2
:1015B00000232A4A171D110024314432DC535E52A5
:1015C00098520233082BF9D12800254B9847280060
:1015D000244B98472800244B9847204E234C3069D1
:1015E000A0470290306BA0470390306DA047019058
:1015F00004241F4B9846330010229346B3441D4FDA
:101600001A4E203292469A442032914699440298CA
:10161000C0475B46E158B847B04702900398C047BF
:101620005346E158B847B04703900198C0474B462E
:10163000E158B847B04701900434142CE7D1029B1D
:10164000EB64039B2B65686505B03CBC90469946EE
:10165000A246AB46F0BDC046495C00000005002034
:10166000791200005D130000451400004D60000079
:101670001D6A0000F160000070B582B004000168CE
:10168000254B64339A8852180260DD882800234B6A
:10169000984700900191A268E368214EB047002866
:1016A00004D028001F4B9847A060E160226963695D
:1016B000009801991C4EB047002804D02800194B0F
:1016C000984720616161A3695B19A361124B643380
:1016D0001B891900628C92B2934200DD6384228CD4
:1016E00092B2914200DA2384E269D218E261A28FB9
:1016F0000132A287206C084964318A88121822645A
:10170000626CAD186564A26C9B18A364E38F01330F
:101710009BB2E38702B070BD000500200585000084
:10172000895F000089850000615F000010B5274CCB
:10173000002323702648037A427A1B021A43254B62
:1017400064339A80817AC27A09020A43DA80017B83
:10175000427B09020A431A81817BC27B09020A4348
:101760005A81017C427C09020A439A81817CC27CB5
:1017700009020A43DA81017D427D09020A431A8285
:10178000817DC27D09020A435A82017E427E09029E
:101790000A439A82817EC27E09020A43DA82017F6D
:1017A000427F09020A431A83817FC27F09020A43EA
:1017B0005A832022825C1A772122825C5A77012385
:1017C00023702830044B984710BDC0460800002005
:1017D00080050020000500207916000010B5434B5D
:1017E0001B7E5B0759D5424930228B5CDBB2581C0B
:1017F000C0B288543D48048DE4B23E48C3181C7101
:101800008B5CDBB2202B48D89B003B4AD3589F46C9
:10181000384B1B79DBB2394A643252789A423CD059
:101820000023302232498B54324A137135E0314B58
:101830005B79DBB2314A643292789A422DD0002330
:1018400030222B498B542B4A1371537125E0294BBD
:101850009B79002B21D00023302225498B54254A27
:1018600013715371937118E0224BDB79DBB2234A79
:101870006432D2789A4210D0002330221C498B5413
:101880001C4A137153719371D37106E02223194AD4
:10189000D25C1202194B6433DA8310BD002130236D
:1018A000134AD1540D3B134AD35C144A6432D28B91
:1018B0009B189BB200220F48811809795B1A9BB2D2
:1018C00001321E2AF8D10D490A006432D383094837
:1018D00000220271427164200A54002BDDD10121E3
:1018E0006433064AD154064B9847D6E700100042AD
:1018F0000006002080050020208F00000005002049
:101900002D17000010B5124931228B5C002BFCD141
:101910000F4B0121312299543420CE321A541A002F
:1019200034325170853191700021D1701171517133
:101930009171D171793111723D241A5DD2B2511C6D
:10194000C9B219559B181B5C024A138510BDC046CD
:10195000000600200018004230B5444B1B7E9B0758
:1019600009D53123424AD35C012B1ED03F4A137E56
:1019700002210B4313763D4B1B7E5B0714D53C4A7B
:101980003E21535CDBB2581CC0B250543748008D26
:10199000C0B2D31840241855535CDBB2022B24D0BC
:1019A000092B31D0012B15D030BD3D21535CDBB26A
:1019B000581CC0B25054D31834201B5C2B480385EC
:1019C000535CDBB2082BD6DD130000225A540C39CD
:1019D0005A54D0E73F33D35CDBB2FF2BE4D0130083
:1019E00000225A5402315A54DEE7214B40335B78CF
:1019F000DBB2862BD8D01E4B00223E215A54023136
:101A00005A5440335A70CFE7194B00223E215A54A2
:101A10000B315A5401321900402549208B185C5D66
:101A20000B5C1B19DBB20B540132082AF6D1104BA8
:101A3000002240215A541800403042704932995CCB
:101A4000C943C9B29954995C0131C9B29954017A18
:101A50009A5CC9B29142A7D11900C3788278120268
:101A60009B189BB24A228B529EE7C0460018004248
:101A70000006002070B50D000023214C4C34C25CE0
:101A80001A550133AB42FADD4C231D4AD25C1D4B83
:101A90005A6218000122037E1342FCD0194B5B8B63
:101AA0005B071DD4002D13DD154C20004D3064184C
:101AB0004D34144A28260121042503789355137EBA
:101AC0000B42FCD0538B2B4212D10130A042F4D1F7
:101AD0000C4A5168C0239B020B435360012006E06F
:101AE000084A5168C0239B020B435360002070BD1D
:101AF000044A5168C0239B020B4353600020F6E761
:101B00000006002000080042F8B500AF06000D00F6
:101B1000190002330C000A34E408E4006846001B94
:101B2000854606704570022B09DD022502241678D1
:101B3000465501320134E4B22500A342F7DC0231FC
:101B4000C9B2024B98470020BD46F8BD751A000087
:101B5000F0B5C64600B582B001920E000023434D99
:101B60004C35C45C5C550133B342FADD4C233F482D
:101B7000C55C3F4B5D621C000120237E0342FCD00C
:101B80003B4B5B8B5B0756D4002E13DD374E340086
:101B90004D3476184D363649282201200427237803
:101BA0008B540B7E0342FCD04B8B3B424ED1013415
:101BB000B442F4D101231D432D4B5D621800022174
:101BC000037E0B42FCD02A4B5B8B5B0746D4019A09
:101BD000012A1ADD26494B68264803404B60130052
:101BE000013B002B11DD1300013B98460024282205
:101BF0001E4F6C2602208B5CDBB23D19AB550B7E71
:101C00000342FCD00134A045F5D1194B586880211E
:101C1000C902014359605868C021890201435960D3
:101C2000019A013A2821595CC9B2104B9A186C23C9
:101C3000D154012006E00E4A5168C0239B020B4399
:101C40005360002002B004BC9046F0BD084A5168C1
:101C5000C0239B020B4353600020F3E7044A516802
:101C6000C0239B020B4353600020EBE700060020DB
:101C700000080042FFFFFBFF30B583B014001D00D9
:101C800001AB18705970EAB201211800094B98474E
:101C90002B1E0CDD00210022074D6C206918095C09
:101CA000217001340132D2B211009A42F6DB0020D9
:101CB00003B030BD511B000000060020F0B583B01A
:101CC0000500019117001E001800104B9847041ED4
:101CD0000CD1B378002B0CD070783B00019A29000E
:101CE000B56CA8475423F05400280BD1200003B052
:101CF000F0BD31002800064B9847041EECD180232C
:101D00001D43E9E702246442F0E7C04645020000B3
:101D100071020000F0B5DE4657464E464546E0B536
:101D20008DB080460F00140001921E002822002171
:101D300002A8294B98473000284B984700282FD1FC
:101D40002300013B122B43D8A146002C2FDD002598
:101D500000247F239B4618E0A246C24453461878CD
:101D600031001F4B98476B005246127859460A4083
:101D700002A95A546D0002AB9C4665443B5D6B70F2
:101D80000134A4B225004C4508DAB378002BE3D027
:101D90006B004246125D02A95A54EBE7002806D0B8
:101DA0000DB03CBC90469946A246AB46F0BD019BA7
:101DB0005B00013B9BB202AA117870780132F46C8F
:101DC000A0475422B0540028EAD002204042E7E75E
:101DD00004204042E4E7C046598C00004502000060
:101DE0007102000030B583B00500E0226B46DA7165
:101DF0002A3A6B469A71124B9847041E1DD1AB7854
:101E0000002B15D02B0001226946063168460730A9
:101E10000C4CA04704000A202B6D9847002C0CD1D5
:101E2000AB78002B09D12800074B9847040004E049
:101E30002800054B9847041EE4D0200003B030BDB5
:101E400045020000151D0000E5020000F0B58DB050
:101E500004005F4B9847002801D00DB0F0BD200072
:101E60005C4B98470028F8D1230001222100D03094
:101E7000594DA8470028F0D12378612B00D0A4E069
:101E80002922002101A8554B984700226B46DA70A1
:101E900020004F4B98470028DFD12300192201A9C9
:101EA00089304D4DA847002864D001AB2222995CAF
:101EB0000902013A9A5C0A43E282997809025A7847
:101EC0000A432283DA78A276997909025A790A4379
:101ED000A283197A0902DA790A43E28320275A7A1F
:101EE000E255197B0902DA7A0A436284997B090276
:101EF0005A7B0A43A28426261A7CA255D97B272224
:101F0000A154197D0902DA7C0A432285997D0902D0
:101F10005A7D0A436285D97D2C22A1549D7EDA7EAA
:101F200012010F212940114321815A7E12012D11E6
:101F30002A4362811A7F22735A7F62739A7FA27347
:101F4000DA7FE273DA5D227425229A5C62742422BD
:101F5000995C0902013A9A5C0A4362829B5D23758F
:101F600000280FD06B4603331B785BB21B1136225F
:101F7000A35472E7230010221D216944E130164D5D
:101F8000A84792E76B46DD1C23000122290002309E
:101F9000114EB0472B789B069B0F3422A354002888
:101FA000E0D16B46DD1C2300333A29000A4EB047CE
:101FB0002A783523E2540028D4D12300012269462F
:101FC00003310430044DA847CCE70320404244E7E6
:101FD00045020000E51D0000BD1C0000598C0000FA
:101FE000F0B5C64600B582B0050074226B469A7102
:101FF000264B98470027002823D16B46DC1D244B35
:1020000098460FE00322934323702B00023A2100ED
:10201000684606301F4EB0470A202B6D984701E0F6
:10202000002F12D02B00012221007420C04700286D
:10203000F6D1237803271F40E4D14423EB5C002B27
:1020400012D102B004BC9046F0BD4423EA5C002AE1
:10205000F7D06B46D91DDB790324A34322401343F9
:102060000B700028EDD107E06A46D01DD27903211C
:102070008A430B40134303702B000122694607314A
:1020800068460630034CA047DBE7C0464502000027
:10209000BD1C0000151D0000F0B5CE46474680B5BA
:1020A00087B006000D00002217236B441A70063219
:1020B000002104A8CD4CA0470622002102A8A04779
:1020C0002800CB4B9847002821D14423EB5C99464C
:1020D000330721D400224423EA542800C54B9847F3
:1020E0000024F30600D594E0B30600D5B5E0B307AD
:1020F00000D0D8E0730700D50BE1C023334200D0F5
:102100002DE1002800D16AE144234A46EA5407B091
:102110000CBC90469946F0BD00236A46138001AA84
:1021200013804B46012B04D000224423EA540120A3
:10213000D6E759336A4613701A3BE85A5133FF33D6
:10214000984200DD18001222AB5EAB4A944663440D
:10215000584383001818A94C6421A047C8239B0347
:102160009C4660440A21A0471123EB56C4229200EA
:10217000944663445843C30F1818431098460423E9
:10218000EB56142028565843FA218900A047000234
:1021900040443423E95C0431A0473523EB569901D0
:1021A000C9184900C91880235B029C466144A047B6
:1021B0000300FA3B1801C018400032306421A047E8
:1021C00001AB187064236A465370223BEA5A8C496B
:1021D000BD338A420FDD01A94B7000243C23EC542F
:1021E0002B0002226846874FB8474423EC5400284E
:1021F00000D075E771E73F2A09DD0023920801331B
:10220000DBB23F2AFADC9B019B18DBB2E3E7002339
:10221000F9E72B000722002128003B307A4CA04729
:10222000002812D03B23EA5C92001F3B1340172189
:1022300069440A781C24A24313430B70752104AA35
:10224000117002AA13701B3C4EE72B0001221721CC
:10225000694475306D4CA047E4E72B00082200214B
:1022600028003D30684FB847002814D017226A4430
:10227000137808218B433531695C8C460821674609
:1022800039400B431370702104AA115502AA13554B
:102290000134E4B22BE72B0001221721694470308E
:1022A0005A4FB847E2E72B000522002128003930B9
:1022B000554FB847002824D0F30709D517226A44A0
:1022C00011781F230B403921695C49010B431370BE
:1022D000B3070BD517226A443A23E95C89001E3BF9
:1022E0000B4011781C27B9430B431370742204ABC5
:1022F0001A5517236B441A7802AB1A550134E4B20D
:10230000F8E62B0001221721694474303F4FB8478B
:10231000D2E7280038302B00052200213A4FB84779
:10232000002814D017226A44137807218B433131D7
:10233000695C8C460721674639400B431370722154
:1023400004AA115502AA13550134E4B2D5E62B00B4
:1023500001221721694472302C4FB847E2E72B0065
:102360000122002128003E30274FB847002825D001
:1023700073060BD517226A443E23E95C09012E3B04
:102380000B4011781027B9430B43137033060AD55D
:1023900017226A4413780F218B432D316E5C2D393F
:1023A00031400B431370712204AB1A5517236B4451
:1023B0001A7802AB1A550134E4B2A2E628003C3088
:1023C0002B000A220021104FB8470028D0D12B0043
:1023D00001221721694471300C4FB847C8E72B0020
:1023E000220002A904A8074CA0478DE6598C0000E2
:1023F00045020000E11F0000995902005D5D0000E8
:10240000BF0F0000151D00000D020000BD1C0000E4
:1024100030B583B004000D0000236A461370013309
:102420005370013393700233D37004331371083344
:1024300053712933CB5CD05C3A23CB5CD35C1B1843
:1024400038228A5C6946885CC3180B4858430B4B9A
:102450009C466044FA218900094B9847013080B2BC
:1024600020803E23EB5C002B03D04223EB5AC018A4
:10247000208003B030BDC046AB070000B912000099
:10248000495C0000F0B5DE4657464E464546E0B58D
:102490008FB083460D000800D74B9847071E07D022
:1024A00038000FB03CBC90469946A246AB46F0BD02
:1024B0000F2200210AA8D14B98472800CE4B9847FD
:1024C00007000A24A9465D4651E1AB464D469146B8
:1024D0000200604612010009024309031143C910BA
:1024E000EB8A5B00CB1A1A00DB171900DB07079297
:1024F0005008184302000B000891C14EB0470B056D
:10250000000B184309131A22AA561201D317B04719
:102510008904800B084309901826A85FC117079A01
:10252000089BB74EB0474905C00A0843099B1E18CF
:102530002E63B3009B1980331B125A4693802B6B7A
:102540005910B04B9C4661448A105243D012262346
:10255000EB56584380102426AB5F4B435B001B189F
:102560009B101E26A85F4843401020216E5676011E
:1025700051137143C910091889148022120294461C
:102580006144AA8B5143029A1001059A1209024331
:1025900000980003104380225203101A2226AA5FDB
:1025A0001204D3181B13C31A97485843C913974BE7
:1025B00098474300DA101912524352132A26A85F93
:1025C0004243121394469E102822A85E7043401383
:1025D00060440A004A434A432C21695C5143491430
:1025E00040182722AA56D20180180011C0185B4655
:1025F00098602B6B9E00F618803636120E202856F7
:1026000070436421824B9847704380116421804B52
:10261000984700900D202856704364217C4B9847C2
:10262000009B1B188022D2019A186B8953439B127E
:10263000009306990A0241460A432B891B01D11ACD
:1026400088460C20285670436421714B98474010EF
:1026500041460B1A009A5A43904693130093102058
:102660002856704364216A4A9047EB7BDB01C0180F
:102670000011009B5B439B1243435B1043449A123F
:10268000FA239B0053431A13D343DB171A40614BC1
:102690009A4200DD1A005B46DA600F264B461E4068
:1026A00000963623E9560A00C9170B00910F8C4695
:1026B000990066463143900080185941564A0023DC
:1026C00080185941009B9E00544B9E194C4B9846D4
:1026D00072680023C0470B049C460022002300922E
:1026E0000193030C00936346009A1A4300920B1463
:1026F0000193534699004B46980908430021C003B3
:10270000FF22120601235B4280185941009A019B67
:102710008018594102900391706C0021C047CE058A
:10272000430A334300934B120193029A039BDE0743
:1027300050083043039B5910009A019B801859415F
:10274000029A039B364EB0475B461861002C4ED070
:10275000002F00D0A4E65B461B787F2B43D80022D5
:102760004523EA549CE6013CE4B2002C41D0002F02
:10277000F9D14B460F220AA91D202A4EB047070067
:102780000AAB1B780F221A406A700AAA5278AA7004
:102790000AAA927800920AAAD27802920AAA127918
:1027A00005920AAA51799079D27994460AAA127AA6
:1027B00006920AAA527A90460AAA527B92460AAA1E
:1027C000927B7F26B3435F3E16403343102616406C
:1027D00033432B705BB2002B00DA76E60A204B46BF
:1027E0001B6D9847BFE701224523EA5458E60227AC
:1027F00056E6022754E6C04645020000598C000008
:10280000F95F00000006FFFF350C0000495C000086
:102810005D5D0000A08601003C050000080000206E
:10282000B15F0000BD1C000010B504001D4BFF226D
:102830001A735A739A73133A427700230375C37459
:102840008374437403742133C254EB3A0133C2548A
:10285000154B8366154BC366154B03672030154B2C
:1028600098470023002801D0180010BD04225933D6
:10287000E254583B6374023A58216254A374033003
:1028800002316054E374013162542374E5315E32E5
:10289000A152AA390232A152043AA3542375063236
:1028A000A354E1E780060020791C0000091B00000A
:1028B000B50A00004D1E000070B586B0040001226C
:1028C0006423C254407CA37C002B01D00423184312
:1028D000E37C002B01D002231843237C002B01D082
:1028E00010231843237D002B01D0C8231843250053
:1028F000203580B229002E4B98470026002802D0B0
:10290000300006B070BD28002A4B98470028F7D148
:102910006B469E1C29003000274B984730884000AA
:1029200080B2264B9847290001A8254B98470026DE
:102930000028E5D1637C002B29D001AB0420185E70
:10294000204B98470022204B204DA847204B98470A
:102950002060A37C002B1DD004981E4B98470022BA
:102960001D4B1A4DA8471A4B9847A060E37C002BDB
:1029700013D00398194B98476060267D002E14D021
:1029800001AB1B78DB060BD40023E360B8E7144BE4
:102990002360DEE7124BA360E8E7114B6360ECE7CE
:1029A00005980E4B9847E060AAE70126A8E7C046C5
:1029B00099200000E11F000011240000950A00008A
:1029C000852400000585000000005940C970000002
:1029D0009D8600008985000000408F401D6A000030
:1029E0000000C07F034B1960034A137E9B07FCD590
:1029F0007047C046280C0042000C004210B5064B40
:102A0000802212021A60802464021C60034B9847E3
:102A1000034B1C6010BDC04614440041E529000072
:102A20001844004170B5064C80231B0223608025AA
:102A30006D02044B1D60044B9847256070BDC04675
:102A40001844004114440041E5290000F8B5040091
:102A50002021244B9847244D2F002C37234E2978D2
:102A60002000B0470135BD42F9D1212120001D4B86
:102A700098471D4E35002C3556361C4F29782000BE
:102A8000B8470135B542F9D122212000154B9847AE
:102A9000154E350058358236144F29782000B84736
:102AA0000135AE42F9D1232120000E4B9847104E3C
:102AB000351D2E360D4F29782000B8470135AE421E
:102AC000F9D124212000074B9847094E35003035B5
:102AD0005A36064F29782000B8470135B542F9D15A
:102AE000F8BDC046FD290000A48F0000252A000083
:102AF00024900000F0B5C64600B5040084235B00B6
:102B00000360583B4360AD3B03724D4B8026760219
:102B10001E608022D20190461A606420494FB84757
:102B2000494D43462B606420B8472E6001212000A8
:102B3000464EB04703212000454DA8470021200004
:102B4000A8472B212000A8472B212000A8470921B6
:102B50002000A84706212000B04707212000A847F1
:102B600007212000A84717212000A847F8212000AE
:102B7000B04760212000A847A5212000A847F821E0
:102B80002000B04789212000A847A5212000A847A0
:102B9000F8212000B04790212000A8470021200004
:102BA000A847F8212000B04793212000A8472A21F8
:102BB0002000A847F8212000B047A0212000A84706
:102BC000A5212000A847F8212000B047A12120001E
:102BD000A84700212000A847F8212000B047732112
:102BE0002000A84741212000A84716212000B04717
:102BF00000212000A84704212000B0470123637270
:102C0000637A002BFCD100212000104EB047AF2189
:102C100020000F4DA84730212000B0473A21200066
:102C2000A84782212000B04712212000A847022097
:102C3000044B98472000074B984704BC9046F0BDD2
:102C400014440041950A000018440041FD29000089
:102C5000252A00004D2A000070B505001021114BF7
:102C600098470220104B9847104C114EFF21280026
:102C7000B047013C002CF9D102200B4CA047132196
:102C80002800084B98470220A047084C084EFF2117
:102C90002800B047013C002CF9D10220024B984794
:102CA00070BDC046FD290000950A0000B016000066
:102CB000252A000010B504001221024B9847012379
:102CC000637210BDFD290000F0B5DE4657464E4642
:102CD0004546E0B585B006000D00009299460EAB62
:102CE0001B8803930FAB1A8817007B1E9F417F42FE
:102CF000FBB20193037A022B52D0032B57D0012B46
:102D000048D0072349460B409B465C42E40FE40051
:102D1000002A58D1FF321A41D3B202931521300054
:102D20003B4B984729120123984619403000394FF0
:102D3000B84707239A469D43E9B23000B847009D43
:102D4000290A3000B847E9B23000B8474B46191994
:102D50000912434619403000B8474C4453469C433F
:102D6000E1B23000B847039CA2462112C9B230003C
:102D7000B847E1B23000B8470220274B9847002CF3
:102D80003BDD4B46DD08ADB20023224F00962E00FE
:102D90001D0020E0CD4303689C466544ADB2B0E71A
:102DA0004368591E009BC91A8BB20093A9E7CB4315
:102DB00001688C4663444946039881460391009D0F
:102DC0009BB200939DE7DB43DBB20293A6E701359C
:102DD000ADB2AA4511DD002E07DD0024019900984F
:102DE000B8470134A4B2B442F8DB5B46002BEEDDF9
:102DF00002990098074B9847E9E70220064B98474D
:102E000005B03CBC90469946A246AB46F0BDC046D4
:102E1000FD290000252A0000950A0000F0B5DE46D5
:102E200057464E464546E0B589B004900C000792DF
:102E30001D0012AB1B88069314AB1B780593AF2DB6
:102E400001DD0135EDB2059B9FB2012B13D0AB0024
:102E50005B19584DED1860239B46AB44B9007918B7
:102E600009198BB29846052399460020059B023B21
:102E7000DBB29A467CE0049B1B7A022B32D0032BF8
:102E800039D0012B27D01521049E30004A4B98479A
:102E9000E105C90F04963000484EB047F8212140A3
:102EA0000498B047079B1912C9B20498B0476B4603
:102EB000197F0498B04700210498B047082104986E
:102EC000B04700210498B04705210498B04702207C
:102ED0003B4B9847BBE7049B1B680393591E0C1B95
:102EE00024B2D0E7049B5B680393013B079A9B1ACB
:102EF0001BB20793C7E7049B1B680393013B1B1B93
:102F0000079C1BB20793BEE7DB43D9B204982B4B57
:102F1000984719E07008013CE4B2039B9C46654465
:102F2000ADB2002C0FD00600C307F3D55346052BD6
:102F3000F0D9069B0193039B00932A004146049815
:102F4000204FB847E6E71F004B46013B5BB299466E
:102F5000013325D000204B46042B01DC5B4618785A
:102F600001235B429C46E3444346DB1B9BB29846ED
:102F700000210023012607251A0003000B413340DE
:102F80006C1AA3401A43D2B201310829F5D11300BB
:102F9000059A012AB8D06B469D8B08240397C2E797
:102FA0000220074B984709B03CBC90469946A24680
:102FB000AB46F0BD24900000FD290000252A00004A
:102FC000950A0000C92C0000F0B5DE4657464E4673
:102FD0004546E0B587B00490884605921F0010ABC7
:102FE0001B88994611AB1B889A4612AB1D78380096
:102FF000164B9847C0B204B2002C20DD062676425C
:103000004643B6B2124B9B463B0047469846434662
:103010001B19013B1B78621E5100511849007118A1
:103020006943C91909B20295524601924A46009273
:10303000059A0498D847013C24B2002CE7D107B088
:103040003CBC90469946A246AB46F0BDED8C0000D4
:103050001D2E0000F0B5DE4657464E464546E0B50B
:1030600083B000900D001600203BDFB2037A022BE4
:1030700043D0032B48D0012B38D01521009C2000D1
:103080003C4B9847E905C90F009420003A4CA047F3
:10309000F8212940009D2800A0473112C9B228001C
:1030A000A047F1B22800A04700212800A04718211E
:1030B0002800A04700212800A0470B212800A04796
:1030C00002202E4B98473B01DB195B002C4A5C32F7
:1030D00019001E314900884690442A498C466344B1
:1030E0005B0092469A44244B99461AE0CD4303680C
:1030F00001939C4665442DB2BFE7009B5B6801933A
:10310000591E8E1A36B2B8E7CD43009B1B68019357
:103110005B1915001EB2B0E7083B9C46E044D04561
:103120001ED0C346032501245B469F780022002160
:1031300007200B00390011412140861AB1400B4392
:10314000DBB20132082AF5D1D943C9B20098C84789
:10315000013DADB202239C46E344002DE4D1DBE700
:103160000220064B984703B03CBC90469946A246C5
:10317000AB46F0BDFD290000252A0000950A00009D
:1031800024950000FDFFFF7FF0B5DE4657464E4612
:103190004546E0B583B000900F001600203BDDB23D
:1031A000037A022B44D0032B49D0012B39D01521AF
:1031B000009C20003D4B9847F905C90F0094200062
:1031C0003B4CA047F8213940009F3800A0473112FE
:1031D000C9B23800A047F1B23800A047002138003A
:1031E000A04718213800A04700213800A0470A2135
:1031F0003800A04702202F4B9847AB005B199A007C
:103200009B182D4A18321900153149008846904400
:103210002A498C4663445B0092469A44244B994663
:103220001AE0CF43036801939C4667443FB2BEE770
:10323000009B5B680193591E8E1A36B2B7E7CF43E5
:10324000009B1B680193DB1917001EB2AFE7083B18
:103250009C46E044D0451ED0C346032501245B466E
:103260009F780022002107200B00390011412140E6
:10327000861AB1400B43DBB20132082AF5D1D9439B
:10328000C9B20098C847013DADB202239C46E34451
:10329000002DE4D1DBE70220064B984703B03CBC8D
:1032A00090469946A246AB46F0BDC046FD290000B7
:1032B000252A0000950A0000A4BF0000FDFFFF7F43
:1032C000F0B5DE4657464E464546E0B589B0059016
:1032D00006921D0012AB1B889A4613AB1B889946B9
:1032E00014AB1F78BE00BE197600BE19B6B200241A
:1032F000114B984607963B000F009B462800C0479D
:10330000844212D22B5D2100079A5143C91909B298
:103310005A4602924A46019252460092069A0598EF
:10332000064EB0470134E4B2E8E709B03CBC904631
:103330009946A246AB46F0BDED8C0000553000002A
:10334000F0B5DE4657464E464546E0B589B0049096
:103350008A4605921E0012AB1B889B4613AB1B8846
:10336000984614AB1F7815AB1B78012B0AD0BB0015
:10337000FB185B0099460023069300243B004F4650
:1033800099465CE03000394B9847C0B204B2002C3B
:1033900065DD0A256D424543ADB200239946059B84
:1033A00005331BB2079333002E004A460692994616
:1033B00017E0631E99005918490071187943514468
:1033C00009B20297434601935B4600932E23079A66
:1033D0000498274DA84704230693013C24B2002CEF
:1033E0003DD04B461B19013B1B782E2BE1D0621EB2
:1033F0009100511849007118794352460698844645
:103400006244891809B20297424601925A460092D4
:10341000059A0498174DA847DFE7210079435144E6
:10342000069A891A09B24A460292424601925A46BF
:103430000092059A04980F4DA8470134E4B2300079
:103440000A4B984784420AD2335D002CE5DD3519DA
:10345000013D2A782E2AE0D1293A0692DDE709B00B
:103460003CBC90469946A246AB46F0BDED8C0000B0
:103470001D2E00008931000010B54022064B1A6055
:1034800096204000054B9847054B064A9A6206492C
:10349000A822995010BDC04618440041950A00006A
:1034A00000440041300001510003015170B5040097
:1034B0000220054DA84720800320A84760800420F3
:1034C000A847A08070BDC046C50A0000F0B5DE4622
:1034D00057464646C0B584B007000088594B9B4606
:1034E000984704000D00584B984602000B0000203E
:1034F0005649C04702000B0055498A4600205549ED
:10350000D047009001910022534B20002900D04762
:1035100002000B00514E00980199B04704000D00C5
:10352000BC60FD607888D8470090019102000B00D4
:1035300000204649C04702000B0000204849D04700
:10354000029003910022474B00980199D047020056
:103550000B0002980399B04738617961B888D84761
:103560000090019102000B0000203849C047020082
:103570000B0000203C49D0470290039100223B4BB6
:1035800000980199D04702000B0002980399B047B8
:10359000B861F961364A374B20002900364DA847FB
:1035A000364C374A374BD04720626162364A374B38
:1035B00038697969A847364A364BB047206161615E
:1035C000354A364BB869F969A847354A354BD04773
:1035D000A061E161344A354BB868F968A847344ABC
:1035E000344BB047A062E162334A344BB868F968A3
:1035F000A847334A334BB04720636163304A324BAC
:1036000038697969A847314A314BB047A063E16313
:10361000304A314B38697969A847304A304BB04756
:1036200020646164386979692E4A2F4BA847244A7F
:103630002E4BB047A064E16404B01CBC90469A468F
:10364000A346F0BD89850000317E000000F88F4060
:10365000C970000000407D40005881403179000071
:1036600000F07C40008081400060604000E08B40C2
:10367000B81E85EB51B8FABF754A000080060020DD
:1036800085EB51B81E85F73F77BE9F1A2FDDF2BF3D
:103690000AD7A3703D8A1140E9263108AC1CF03FDF
:1036A000EC51B81E856B1B40BE9F1A2FDD2404C051
:1036B0005A643BDF4FD18140B4C876BE9F1A01C027
:1036C000C1CAA145B6E17840B67311C02DB29DEFD5
:1036D000A7B78340CDCCCCCCCCCCFCBF5C8FC2F5A3
:1036E000285CE73FA245B6F3FDD4F8BFB6F3F93F37
:1036F00010B50400024B98472000024B984710BDBC
:10370000AD340000CD3400001B4B1322DA73093AAC
:103710001A7407325A74033A9A732C325A7334214A
:103720001973164B1A693F2082430A431A611A69BA
:1037300013491140E82212010A431A611A6911491A
:103740001140E02212020A431A611A690E4911401F
:10375000982292030A431A611A690C491140A02267
:1037600092040A431A611A69920192098821C905D3
:103770000A431A617047C046801D002000140040B3
:103780003FF0FFFFFF0FFEFFFFFFC1FFFFFF3FFC0A
:103790000C4A11698906890E0B4B197311690905C9
:1037A000890E59731169C903C90E99731169890288
:1037B000C90ED97311698901090F19741269920E22
:1037C0005A74704700140040801D002010B50E4B45
:1037D0001B7A5B0600D410BD0C4814300C4B984784
:1037E0000C4B50335B7A002B08D1084B1B7B002B12
:1037F00001D01E2B02D10122074B5A71024A137AC3
:1038000040210B431372E6E700140040801D0020A6
:10381000913700008006002088000020F0B5DE46C9
:1038200057464E464546E0B58FB00A2200210BA808
:103830004C4CA0470A22002108A8A0470A220021D8
:1038400005A8A047484E30001830484B9847484FCD
:10385000B069B84704000D00464B98461C615D6195
:10386000F069B847444B99460022444BC847434649
:103870009861D961306AB847434618625962706AE4
:10388000B84700223E4BC84743469862D96201239D
:103890000BAA200029003B4CA246A0473A4D5035C8
:1038A000012403940294394F0197002300930BAB3A
:1038B0001C2234212800364EB146B04702940197AD
:1038C00000230093B0331C2237212E002800314DF5
:1038D000A847029401970023009363331C223C21E4
:1038E0003000A847012305AA4146086A496AD04723
:1038F0000394029401970023009305AB2B223421FB
:103900003000C847029401970023009325332B22EF
:103910003C213000204DA84743469869D9690023CF
:1039200008AAD0470394029401970023009308ABA0
:103930003A2234213000C84704AB184A1188198054
:1039400092789A7002940197002200923A323C21B8
:103950003000134CA0470FB03CBC90469946A2469D
:10396000AB46F0BD598C0000801D0020B928000036
:10397000F9850000001E0020C970000000005940B9
:1039800000408F40CD0B000080060020FFFF0000AC
:1039900041330000893100005530000040F700003D
:1039A000C1320000F0B5C64600B58CB00A22002135
:1039B00009A8164B98474A23154AD05A80B20122CB
:1039C00009A9144B984707AB134A1168079112795C
:1039D0001A71124C503401250295114F019700269F
:1039E000009651223E21059420000E4CA0470395DD
:1039F00002950197009609AB5122872105980A4C40
:103A0000A0470CB004BC9046F0BDC046598C0000E5
:103A100000060020450B000044F70000800600204F
:103A2000FFFF0000C132000041330000F0B5DE4668
:103A300057464E464546E0B5A9B00A22002125A8C2
:103A4000994CA0470A22002122A8A0470A2200215F
:103A50001FA8A0470A2200211CA8A0470A22002173
:103A600019A8A04718AB914A1188198092789A70CA
:103A70008F4B1A6816921A7916AB1A718D4A146810
:103A80001494117914AB19718B4913918B4B1868ED
:103A900011909E8811ADAE800F9414790FAA147105
:103AA0000D909A880DAB9A800C91854BAC331B78A6
:103AB000002B45D10A22002109A87B4B984707AF6C
:103AC000804B1A0028329B6A079313793B710025BB
:103AD0007D7106AB7C4A1188198092789A707B4C74
:103AE0005034039501260296794A9046019200953A
:103AF0008822532104942000764CA0470296434626
:103B0000019300953B0088222D210498724FB847FD
:103B1000724B986AD96A002309AA714FB847039675
:103B2000029643460193009509AB882287210498A9
:103B3000A04729B03CBC90469946A246AB46F0BD92
:103B40005F4B9B4680235A46D058012225A9654BDE
:103B50009A46984784235A46D058012222A9D04732
:103B600088235A46D05801221FA9D047574D5035B7
:103B7000012403940294564F01970026009616AB39
:103B80000C22E62104952800524DA846A84702942D
:103B90000197009618AB0C22AA21049805904E4D6F
:103BA000A946A847039402940197009614AB1B22E0
:103BB000E621059D2800C04702940197009618ABA6
:103BC0001B22AA212800C84703940294019700965B
:103BD00013AB2A22E6212800C047029401970096E1
:103BE00018AB2A22AA212800C847039402940197FF
:103BF000009625AB0C22822149002800C04703947F
:103C000002940197009622AB1B22822149002800D2
:103C1000C04703940294019700961FAB2A22822189
:103C200049002800C0478C235A46D05A01221CA9BB
:103C3000D0478E235A46D05A012219A9D047029460
:103C40000197009611AB68220F212800C847039600
:103C50000294019700960FAB682245212800C047C7
:103C60000294019700960DAB78220F212800C847D7
:103C700003960294019700960CAB78224A21280003
:103C8000C04703940294019700961CAB68228721D9
:103C90002800C047039402940197009619AB78223C
:103CA00087212800C04705E7598C00004CF7000029
:103CB00050F7000058F7000031303A0060F700007C
:103CC00080050020A4DE000068F7000080060020C8
:103CD000FFFF000041330000C1320000001E002041
:103CE000CD0B0000450B0000F0B5D6464F464646CA
:103CF000C0B590B00A2200210DA8364B984730235A
:103D0000354AD35C002B52D0012B56D0022B5AD00F
:103D1000324C503401270297314E01960025009510
:103D20000DABA6227821059420002E4CA046A0477A
:103D30000A2200210AA8274B9A46984707AB9946C2
:103D4000294B1A0030321B6B079313794A461371C3
:103D500005220021192002AB9C466044D0471E4B2F
:103D6000588E224B984700230AAA214CA04702975D
:103D7000019600954B46A622B421059C2000C04721
:103D80000297019600950AABA622BE212000C047EB
:103D90000297019600952523A622C0212000154CEC
:103DA000A04710B01CBC90469946A246F0BD0A221E
:103DB00011490DA8114B9847AAE70A2210490DA8EE
:103DC0000E4B9847A4E70A220E490DA80B4B9847C3
:103DD0009EE7C046598C0000001E0020800600208F
:103DE000FFFF0000C92F0000A4DE0000898500004D
:103DF000CD0B00001D2E00006CF70000518D00005F
:103E000074F700007CF70000F0B58DB0184C03216A
:103E1000606B184B98470700A063002565630AAEE6
:103E2000154B1A680A921B7933710A22002107A8E0
:103E3000124B9847012207A93800114B9847114CA3
:103E400050342000012402940F4F01970095330055
:103E5000A622282105900D4EB047029401970095A7
:103E600007ABA62246210598B0470DB0F0BDC0466D
:103E7000001E0020495C000084F70000598C0000FF
:103E8000450B000080060020FFFF0000C92F000046
:103E9000F0B5DE4657464E464546E0B59FB00A228D
:103EA00000211BA8434DA84717AB9946424B4A46F1
:103EB00013CB13C21B8813800A22002114A8A84721
:103EC0000EAB98463D4C23003C33424643CB43C2A5
:103ED0001B6813600622002112A8A8470A220021AD
:103EE0000BA8A84705AB9A4654341A000BCC0BC25A
:103EF000236813602379137106220021252068446A
:103F0000A8472F4C02231BAA206A616A2D4DA8479F
:103F1000022314AA20696169A84702230BAAA06999
:103F2000E169A847503401250295274F01970023E6
:103F300000934B464222F3212000244EB346B04763
:103F4000039502950197002300931BAB4D22E621B8
:103F5000260020001E4CA0470295019700230093E5
:103F600043466222FF213000D8470395029501970E
:103F70000023009314AB6F22E6213000A047029586
:103F8000019700230093534681228221490030008B
:103F9000D847039502950197002300930BAB8E221F
:103FA000E6213000A0471FB03CBC90469946A2468F
:103FB000AB46F0BD598C00008CF70000A4DE000079
:103FC00080060020CD0B0000FFFF0000C92F00007D
:103FD00041330000F0B5DE4657464E464546E0B553
:103FE00091B0CD4A136840218B431360CB4B984767
:103FF000CB4B9847CB4B9847CB4B9847CB4B9847ED
:10400000CB4B9847CB4B9847CB4B9847CB4B9847DC
:10401000CB4B9847CB4C20001430CB4B9847CB4B25
:1040200080221A60802252011A6020001830C84B8A
:104030009847C84D28007830C74B9847C74C002395
:1040400023763022AB54C64D50352800C54B9847D7
:104050002800C54B9847C54B9847C54B9847280043
:10406000C44B984780239B009C466444C24B00206D
:10407000002103C3A342FCD1C04B28330F9300237C
:1040800000240C930D9443E10022BD4B9A710F98CC
:10409000BC4B9847BC48BD4B98474A23BC4AD35AAF
:1040A0009BB2BC4A934207DD4A23B94AD35A9BB21A
:1040B000B94A934200DCAEE04A23B54AD35AAAE09B
:1040C000013408353B2C1CD0AE68EF682E606F6061
:1040D000A046042C08DC32003B0004980599D04728
:1040E00004900591089B0E934346362BE8DD320081
:1040F0003B0006980799C84706900791089B0993CB
:10410000DEE7099B002B51D10E9B002B04D09E4B68
:104110000499059A9960DA60904BF933FF330A9C51
:104120000B9D21002A0019605A60974E326973690D
:1041300020002900994CA04704900591984F002237
:10414000984BB068F168B84704000D00B460F560A2
:104150000022944B04980599B84730617161337E11
:10416000002B3ED022002B008F4CA0478F4A904B53
:10417000904CA04700281FD0804B5B6FC72B07D8FF
:104180007E4B9B6FC72B03D87C4BDB6FC72B13D9A0
:10419000012330226F498B547B4A53767A4B01229C
:1041A0009A767749CA710022DA7623E0764B06992F
:1041B000079A19615A61A7E7684B1B7E002B0CD147
:1041C000302264498B54704A53766F4B00229A76A2
:1041D00001206B49C871DA760CE0012B45D0022B27
:1041E0004BD030235B4AD35C012BD7D0002BECD0D3
:1041F000022B49D0624B1B79002B07D0624B9B7F6F
:10420000002B03D05E4B5B79002B59D15B469B7929
:10421000002B00D038E75C4B5E78F6B2002EE0D081
:104220001C0000236370474B186A634B98470A00D1
:1042300001000A910B92474B19625A620022002337
:10424000A260E360226163614B4D002400230E9362
:104250000C9A0D9B049205930021099106920793F5
:104260004E4B9A46089699462EE701212F33394A3C
:10427000D1540022444B5A7690E702212E33354A1E
:10428000D1540022404B5A763F4B0122DA7600226D
:104290003B49CA719A769B8B9A009B185B002D4A0A
:1042A0005386A7E701230293444B01930023009315
:1042B0004833A122A0212A485030414CA0471DE09C
:1042C00000222F4B5A71234878303E4B98472B4899
:1042D00028303D4B9847224A5032537A002BFCD16C
:1042E0001F485030204B9847384B9847204B9847F1
:1042F0001E4B9847244B5B7E002BD3D1344B984701
:10430000344B9847344B984715485030194B9847D1
:104310001B4B9B467AE7C04614040040FD01000099
:104320002503000095030000C907000045060000B2
:10433000C90600004D070000310800000109000017
:10434000250A0000801D00200937000018440041A4
:1043500029280000001E002079340000801E002063
:1043600080060020F52A0000592C00001D380000AE
:10437000E93C0000B52C0000A01E002080050020B4
:10438000880000202D150000802000200519000065
:104390000006002007070000BF120000A96A000005
:1043A000C970000000001440317E00009A9999996C
:1043B0009999A93F895F0000F9850000FFFF00007F
:1043C0001D2E0000F1360000D90C0000093E00004F
:1043D000A53900002D3A0000913E0000404B9B7B28
:1043E000DB0600D47AE03F4A138C01339BB213847E
:1043F000F92B6EDD1300528C01325A849A8C0132F3
:104400009A84DA8C0132DA8400221A840132364B23
:104410009A71364A364B1A80364A937ADB09FCD1B8
:10442000304BDB8C022B18DD2E4B0022DA8401325C
:104430005A701B7E002B03D12A4A138D013313853A
:10444000284B1B7E002B08D1264B1B8D3B2B04DDFC
:10445000244B00221A8501321A76224B9B8C1D2B8D
:1044600004DD204B00229A8401329A771E4B1B7A7E
:10447000002B09D01B4B5B8C1D2B05DD00221A4B3A
:104480001A720132174B9A772A23164AD35C002BF3
:1044900006D1937F002B03D0124A938D013393856D
:1044A0002A23104AD35C002B09D1937F002B06D01E
:1044B000938D042B03DD01212A230A4AD154094B91
:1044C0005A8C0D4B9A4204DD064B0122DA850022FC
:1044D0005A84034A937B10210B4393737047C04661
:1044E0000030004280200020880000200080FFFF74
:1044F000021400400014004057020000F0B5CE4600
:10450000474680B585B0704BDB6ADB0700D498E086
:104510006E4BDB79002B00D1B2E06D4B9B7E002B04
:1045200000D0B1E06A4BDB7E002B76D1684B984619
:10453000196B5A6B009101929963DA63654B5A6F5C
:10454000D96F8C4662449B6F5B00D018624B9847D2
:10455000624B9946624B9A6ADB6AC8475B4C226998
:104560006369604DA847434618645964A269E369CA
:104570005D4CA0475D4B984704000D0043461C630B
:104580005D639A6CDB6CC847029003910022584B24
:10459000584EB047002859D0002055494C4B9864DC
:1045A000D9644B4B98461C655D65009A019B2000C1
:1045B00029004D4EB04706000F0043469E65DF655B
:1045C0004D4B99464D4A4E4B4146886CC96CC84785
:1045D000424B984622002B00C04704000D00474A7A
:1045E000484B30003900C84702000B00200029006A
:1045F000C04704000D0000220023434EB0470028AE
:1046000038D1334B1C665D66314B186E596E374B93
:1046100098473E4B9847324B58862C4B1B7A002BC1
:1046200042D00A222E4B5A862D4B5A8E384B1A6096
:10463000254A93689B02FCD4234AD36A01210B4389
:10464000D36205B00CBC90469946F0BD0022314BB8
:10465000029803992C4EB047002805D11C4B0299B3
:10466000039A9964DA649CE700202A49184B9864FD
:10467000D96496E700200021154B18665966C3E7F8
:10468000134B9B7E002BC8D0114BDB7E002BC4D17B
:10469000134B5B8E052BC0DD0522114B5A860B4B4D
:1046A0001B7A002BBDD1BFE70D4B5B8E282B03DDA2
:1046B00028220B4B5A86B7E7094B5B8E632BB3DD81
:1046C0006322074B5A86AFE7002000428800002093
:1046D000802000208005002089850000A96A000054
:1046E000001E0020C9700000317E0000C949000092
:1046F00000004940895F0000317900009A9999993A
:104700009999C93F9999B93F615F00007D600000A8
:1047100078200042000049C010B5314BDB6ADB074E
:104720002AD5304B1B7A002B16D020232D4AD35C80
:10473000002B03D02C4B1B68FE2B31D92023294A98
:10474000D35C002B30D0284B1B68FF2B2CD10021D1
:104750002023244AD15427E0244B9B7E002B0CD0ED
:104760000022214B1A601E4A93681B03FCD41C4A8A
:10477000D36A01210B43D36210BD1D4B588E1D4BD4
:10478000984700221C4B1D4CA04700221C4B1D4C7F
:10479000A0471D4B98471D4B9847134B1860E2E705
:1047A000114A13680133136020230E4AD35C002B97
:1047B00003D10D4B1B680F2B0DD82023094AD35C66
:1047C000002BD0D1084B1B680F2BCCD80121202304
:1047D000044AD154C7E7044A1368013B1360C2E797
:1047E000002800428800002070280042802000201D
:1047F000001E002089850000000070403179000013
:1048000000005940C97000009D4800007D60000014
:10481000124B1B695B060AD5104BDB685B0606D59D
:104820000F4A536B0133536340220C4B1A610B4BFD
:104830001B699B0410D5094BDB689B040CD5094B05
:1048400050335B7A002B03D00022064B50335A7250
:1048500080229201014B1A617047C0460018004047
:10486000001E0020800600207047000010B50322C3
:104870000649583106486530064B9847064B0022DA
:104880001A655A6550335A7210BDC046C0F6000012
:1048900000050020D58B000080060020F8B55746A3
:1048A0004E464546DE464B00414A5B0DE0B59F183B
:1048B00005000C0080460E0089468246132F26DC38
:1048C000002F56DB3B4B3B4198460B0042461340C2
:1048D000034316D0384A394B02F0E6F80022002391
:1048E00001F052FB00280AD0002C03DD80235B037B
:1048F0003B41994443464E469E4300239A465046C8
:1049000031003CBC90469946A246AB46F8BD332FD9
:1049100008DD8023DB009F42F3D102000B0002F090
:10492000C3F8EEE7264A9446012263445242DA4035
:1049300093460242E5D0204A204B02F0B5F800220F
:10494000002301F021FB0028D9D0002C28DD142FF2
:1049500023D03423DB1B01279F407F19AF429B41AB
:104960005B4299445B469F434E46BA4631005046EF
:10497000C7E7114A114B02F097F80022002301F01B
:1049800003FB0028BBD0002C0CDB00232C439A46F1
:104990000026002CB3D00B4EB1E701239C46E14426
:1049A0004746DFE7002380269A463606A7E7C0463B
:1049B00001FCFFFFFFFF0F009C7500883CE4377E81
:1049C000EDFBFFFF0000F03FF8B5264A4B005B0D02
:1049D0009A1807000C00132A10DC002A39DB224B3E
:1049E00013410B4230D0802424031441002064186A
:1049F0009C430600250030002900F8BD332A0CDD59
:104A000080230600DB000D009A42F4D102000B0067
:104A100002F04AF806000D00EDE7144D0600AC4622
:104A2000012563446D42DD40AC4663460D00034200
:104A3000E1D033239A1A323B93401818874200D9A9
:104A40004C1C63469843D4E706000D000028CAD1E9
:104A5000D1E7C90FCC070020531CCAD1044B1C431B
:104A6000C7E7C04601FCFFFFFFFF0F00EDFBFFFFA4
:104A70000000F03FF0B557464E46DE464546E0B5ED
:104A80008FB01D0006000F00140000F09FF9C74B07
:104A9000009001919A461B785BB2994601333ED053
:104AA00022002B002000290003F0D8FC83460028B8
:104AB00035D132003B003000390003F0CFFC00223A
:104AC0000390002800D0B6E000233000390001F048
:104AD00041FA00282CD0002200232000290001F0F8
:104AE00039FA8346002800D177E004AB98460123C9
:104AF00042460493AE4B53604346039A1C615D618A
:104B00001A629E60DF604246002300249361D461F4
:104B10004B46002B4DD00023A64C009301940098E7
:104B200001990FB03CBC90469946A246AB46F0BDF9
:104B30000098019900F064FF8146002800D19BE0B5
:104B4000009801990022002301F004FA0028E6D021
:104B50003000390000F054FF0028E0D02000290088
:104B600000F04EFF0028DAD004AB984604234246FA
:104B700004938F4B1461556153600023002413622A
:104B800000239361D46153461B789660D7605BB273
:104B9000022B04D0404600F03DFF00280ED103F068
:104BA000EFFF2223036009E04246002300249361C3
:104BB000D461404600F02EFF002837D043461B6AE0
:104BC000002B04D003F0DCFF43461B6A036043461E
:104BD000DC699B6900930194A1E72000290000F0A3
:104BE0000FFF00289BD0002200232000290001F0A5
:104BF000B7F9002800D192E704AB9846012342465A
:104C000004936B4B536043465A469E60DF601A62C2
:104C10001C615D6153461B785BB2002BC4D0002041
:104C2000424665499061D161022BC2D103F0A8FFD1
:104C300021230360C2E700232000290001F08AF944
:104C4000002800D16BE704AB984601234246049349
:104C5000574B4146536043465A461A6200229E60B3
:104C6000DF601C615D61534B8A61CB6100920193EF
:104C70004B46022B9DD152E73000390000F0C0FEB8
:104C8000002800D15CE72000290000F0B9FE0028D0
:104C900000D155E7009801990B00020003F0DEFBFC
:104CA00004AB9846002861D1032342460493404B4D
:104CB0001062536053461B789660D7605BB21461F4
:104CC00055619946002B2FD1E02241463B4B1206FD
:104CD0008A61CB61300000220023390001F040F9E5
:104CE000002800D156E70022354B2000290002F0B1
:104CF0001FFE04000D0000F095FE02000B002000D6
:104D0000290001F027F9002805D1E0222D4B1206D9
:104D100041468A61CB6153461B785BB299464B464C
:104D2000022B00D036E73AE700224146264B3000FE
:104D30008A61CB6100220023390001F011F90028BB
:104D4000EDD000221E4B2000290002F0F1FD0400EE
:104D50000D0000F067FE02000B002000290001F0AA
:104D6000F9F80028D7D10022134BD1E7012342469E
:104D700004930F4B536043464A461C615D611A62BF
:104D80009E60DF60002453461C57002C00D10BE7C7
:104D9000002300221900100002F096F943469861A2
:104DA000D961022C00D141E703E7C046A9000020E9
:104DB000CCF700000000F03F0000F0FFFFFFEF47DE
:104DC0000000E03FFFFFEFC70000F07FF0B557465F
:104DD0004E464546DE461C001300E0B5650091B026
:104DE0006D080093019407000E0080468946A24694
:104DF0002B4331D0674B740064089C4227DC24D0DD
:104E00009D4224DC634B9D4200D181E000239B4600
:104E10004B46002B00DA7FE0002A2CD15D4B9D42EF
:104E200000D197E05C4B9D4266D08023DB059A451C
:104E300000D1B9E3594B9A451DD14B46002B1ADBE3
:104E40003800310000F0F8FC08E000280DD0544B89
:104E50009C46644427430AD100204F4911B03CBC12
:104E600090469946A246AB46F0BDA542CADD4D48E4
:104E700000F0D2FDF2E73800310000F0BDFD4346FE
:104E8000002B1DD1002C04D0434AB3009B08934251
:104E900016D15346002B00DAC5E34B46002BDDDA72
:104EA0003F4B9C465B4664441C4301D100F053FCDD
:104EB0005B46012BD2D1802424060B191900CDE7C3
:104EC000F30F013B98465B464246134357D0364B9F
:104ED0009D4277DD354B9D4200DCB1E3344B9C4273
:104EE00000DCA8E35346002B43DD324A324B10006E
:104EF000190002F01DFDB1E7534638003100002BC8
:104F0000ACDA3A0033000020234902F0DDF8A5E7CF
:104F1000002A00D17AE79AE7284B9D422CDC244BEB
:104F20009D4200DC78E726492B158C466344142B00
:104F300001DC00F0F3FB3421CB1A0099D9400800C2
:104F40009840824200D067E70123194001335B1A81
:104F50009B4661E7124BE3181F4300D17CE7144BDB
:104F60009C4200DC27E3009801995346002B00DBAC
:104F700074E70020002171E702239B464CE73A00CA
:104F800033003800310002F053FF02000B0002F042
:104F90009BF863E70000F07F0000F03F0000E03F77
:104FA000000010C054F700000000E0410000F04392
:104FB000FFFFEF3F9C7500883CE4377EFFFF3F43D7
:104FC00001FCFFFFE94B00229C4206DC0022E84B7B
:104FD00002F0AEFC35220C005242E64D2315AC46E1
:104FE000634499462403E44DE44B240B9144254348
:104FF0009C4209DDE24B9C4200DCB6E301239C4667
:10500000E04BE1449C4665440023002400220893C1
:1050100009940C930D940024D74B06920793069A9B
:10502000079B29000A900B9102F002FF069A079B4A
:1050300006000F000A980B9901F036FD02000B00E4
:105040000020CD4902F040F80A00010013000E9143
:105050000F9202003900300002F06AFC0A000100E1
:10506000802004910592130000226910802500031E
:105070008446029203930022AD050D4365442B192B
:105080000298039914001D0002F052FC02000B006C
:105090003000390002F0CCFE069A079B06000F0094
:1050A0002000290002F0C4FE02000B000A980B99B0
:1050B00002F0BEFE029A039B02F03AFC02000B00D3
:1050C0003000390002F0B4FE0E9A0F9B02F030FC63
:1050D000049D059E069007912A00330028003100A8
:1050E00002F026FC06000F00A74AA84B02F020FCA5
:1050F000A74AA84B01F0D8FC32003B0002F018FC94
:10510000A54AA64B01F0D0FC32003B0002F010FC97
:10511000A34AA44B01F0C8FC32003B0002F008FC9B
:10512000A14AA24B01F0C0FC32003B0002F000FC9F
:105130009F4AA04B01F0B8FC320004000D003B0078
:105140003000390002F0F4FB02000B0020002900BF
:1051500002F0EEFB029E039F04000D0004980599E7
:1051600032003B0001F0A0FC069A079B02F0E0FB36
:1051700022002B0001F098FC32000A900B913B00BA
:10518000300039000296039702F0D2FB00228A4BCE
:1051900004000D0001F088FC0A9A0B9B01F084FCCE
:1051A00000260F0032000B000298039902F0C0FBAA
:1051B000002202900391804B3000390002F038FE4B
:1051C00022002B0002F034FE02000B000A980B991B
:1051D00002F02EFE049A059B02F0AAFB32000400A6
:1051E0000D00069807993B0002F0A2FB02000B009D
:1051F0002000290001F058FC04000D0002000B0003
:105200000298039901F050FC0026E0226B4B120635
:1052100030000F0002F08CFB029A039B0490059172
:105220003000390002F004FE02000B0020002900CB
:1052300002F0FEFD624A614B02F07AFB614A040013
:105240000D00614B3000390002F072FB02000B00D0
:105250002000290001F028FC0C9A0D9B01F024FC91
:10526000060048460F0003F04DF904000D000498B5
:10527000059932003B0001F017FC089A099B01F0E8
:1052800013FC22002B0001F00FFC002022002B0059
:105290000290039102F0CCFD089A099B02F0C8FD30
:1052A000049A059B02F0C4FD02000B003000390097
:1052B00002F0BEFD049005915B464246013B13435C
:1052C00000D1ABE100232C4C069307940098019980
:1052D00000260B0032000F0002F0AAFD029A039B89
:1052E00002F026FB009A019B04000D00049805992A
:1052F00002F01EFB02000B002000290001F0D4FB8D
:1053000004000D000298039932003B0000940195BF
:1053100002F00EFB02000B0006000F002000290027
:1053200001F0C2FB294B04000D0002008B4699429C
:1053300000DC4FE1264BCB18034300D0E2E100989C
:105340000199244A244B01F0AFFB320002900391F3
:105350003B002000290002F06BFD02000B000298C8
:10536000039900F011FEAA4638E0C046FFFF0F0087
:105370000000404301FCFFFF0000F03F8E98030057
:1053800079B60B000000F0FFEF4E454A287ECA3F79
:1053900065DBC9934A86CD3F01411DA96074D13FA9
:1053A0004D268F515555D53FFFAB6FDBB66DDB3FBB
:1053B000033333333333E33F0000084009C7EE3F84
:1053C000FD033ADCF5015B14E02F3EBEFFFF8F408A
:1053D000000070BFFE822B654715973C002800D067
:1053E00090E1EC4A534694468022520311001B156B
:1053F000634419410B009046E74A5B4494465C00C5
:10540000640DE64D644425411A00AA43110042464A
:105410001B031B0B13431422141B234199465B46A9
:105420000020002B00DAB0E102000B003000390050
:1054300002F0FEFC0B00020006000F00009801992C
:1054400001F032FB4B461B050D009846002400225C
:10545000D34B2000290002F06BFA32000290039136
:105460003B002000290002F0E3FC02000B00009842
:10547000019902F0DDFCCB4ACB4B02F059FACB4A42
:1054800006000F00CA4B2000290002F051FA02006A
:105490000B003000390001F007FB04000D00020092
:1054A0000B000298039901F0FFFA029A039B060091
:1054B0000F0002F0BDFC02000B002000290002F0EA
:1054C000B7FC3200009001913B003000390002F03F
:1054D0002FFA04000D00B74AB74B02F029FAB74A79
:1054E000B74B02F0A5FC22002B0002F021FAB54ACE
:1054F000B54B01F0D9FA22002B0002F019FAB34A99
:10550000B34B02F095FC22002B0002F011FAB14AD5
:10551000B14B01F0C9FA22002B0002F009FA020097
:105520000B003000390002F083FC04000D00020083
:105530000B003000390002F0FBF980230290039148
:105540000022DB052000290002F072FC02000B00A3
:105550000298039901F0B8FD009A019B04000D0028
:105560003000390002F0E4F9009A019B01F09CFA46
:1055700002000B002000290002F05AFC32003B0020
:1055800002F056FC02000B000020944902F050FC8F
:1055900043465B181A15002A00DC49E11900069AF7
:1055A000079B02F0C5F959E43A0033003800310096
:1055B00002F0BEF952E45346002B00DBD9E4009C14
:1055C000019D802212062B0094466344200019009E
:1055D000FFF744FC4B005B089A46814B9A4500DC80
:1055E000B1E0804B5B441A430CD132003B0002F027
:1055F0001FFC02000B000098019900F0BBFC002882
:1056000000D1EEE606980799774A784B02F090F9B8
:10561000754A764B02F08CF9FFF720FC0023744C9E
:105620000693079452E602000B0000206B4901F03C
:105630004BFDFFF732FC5346002B00DB99E454E4AA
:105640006C4B9C42F7DD654B9C4200DD4AE4002236
:10565000624B02F0EDFBC022674BD20504000D0047
:1056600002F066F9654A06000F00654B200029002C
:1056700002F05EF9002202900391624B20002900A3
:1056800002F056F902000B005F48604902F0D0FBBF
:1056900022002B0002F04CF902000B0000205C49B4
:1056A00002F0C6FB2200049005912B002000290087
:1056B00002F03EF902000B000498059902F038F957
:1056C000544A4D4B02F034F902000B000298039942
:1056D00002F0AEFB02000B0004000D0030003900A8
:1056E00001F0E2F9002032003B000290039102F049
:1056F0009FFB02000B002000290002F099FB0490A0
:105700000591D9E5444A454B0698079902F010F9EE
:10571000414A424B02F00CF9FFF7A0FB002A01D0EE
:10572000FFF7A9FB1432D31A2A001A41110099403D
:105730008D4201D0FFF776FB01231A40DB189B1A3C
:105740009B46FFF76FFB0022314B904691469A45EE
:1057500000DC7BE645E602000B0002F069FB02007C
:105760000B0001F0B1FCFFF779FB80232C4CDB052B
:10577000089309942B4B2C4C00220C930D948024FD
:105780002A4BE4020692079349E44B465B42994652
:105790004AE6C04602FCFFFF01FCFFFFFFFF0F00CF
:1057A000432EE63FEF39FAFE422EE63F396CA80C55
:1057B000615C20BED0A4BE726937663EF16BD2C573
:1057C00041BDBB3E2CDE25AF6A56113F93BDBE16D0
:1057D0006CC1663F3E5555555555C53F0000F03FDD
:1057E000FFCB904000346F3F59F3F8C21F6EA50104
:1057F0000000F0BFFEFFEF3F4715F73F44DF5DF8C5
:105800000BAE543E0000D03F555555555555D53F2C
:105810000000E03FFE822B659C7500883CE4377EEB
:1058200003B8E23F06D0CF43EBFD4C3E0000F83F0B
:105830004A4600F099F9B2E66C4BF0B50A004646CC
:105840000D00D6464F461900C0B504000600294099
:10585000994200D1A7E0002D00DC81E02F1500D196
:105860008EE0634B12039C468023120B5B0367445C
:105870001A43FB0768D47B109C46E30F9B189B18C8
:10588000802216210026002564009203A818984261
:1058900002DC85181B1AB618E00F5B0001391B18D3
:1058A000640052080029F1D10022924690468022DD
:1058B0002020120609E0AB4238D0E10FC9180138A8
:1058C000CB1864005208002818D041465118AB424A
:1058D000F1DD8F18B846A946002930DB5B1B8C42EE
:1058E000AD416D425B1B641AE10FC9180138924447
:1058F0004D46CB18640052080028E6D1234328D136
:1059000053465B083B49721088464244F10702D572
:10591000802109060B4361461E000F05BD183000AB
:1059200029001CBC90469946A246F0BDA142C4D8AD
:105930008F18B846002942DB99460023D3E7002F91
:105940002FDB6F1CB946C9E7E10F52008A186400CB
:1059500091E75346013335D0534601335B08D1E715
:105960006B005B080343DAD00027002D32D1E20A36
:10597000153F6405002AFAD080235B031A4224D124
:1059800080200023400300E00B005200591C02421B
:10599000FAD02020401AFF1A2300C3408C401A433B
:1059A0005FE7A9469AE72B000200290001F0C0FF3B
:1059B00032002B0001F078F806000D00AFE7002F51
:1059C000BFDAB9E7013600239CE70123002120203C
:1059D0005B42E0E72B000200290002F029FA0200F6
:1059E0000B0001F071FB06000D0098E70000F07F4E
:1059F00001FCFFFF0000E03F49004B081900704721
:105A0000034B48009C4640086044C00F7047C046A6
:105A10000000108000207047002001497047C046F8
:105A20000000F87FF0B5C64600B5CB0F98464A4C4B
:105A30004B005B0D1E1982B007000A00132E35DCE7
:105A4000002E57DB454B040033411F000F40074336
:105A50000D00002F24D05B081C000C4020430027C1
:105A6000002807D0132E00D173E08022D2023241E9
:105A700099430A434346DE00394B11009E193468AE
:105A80007568380022002B0001F00EF8009001919B
:105A90000098019922002B0002F0CAF904000D00C1
:105AA0002000290002B004BC9046F0BD332E0CDD6E
:105AB00080230400DB000D009E42F1D102000B00A8
:105AC00000F0F2FF04000D00EAE7264C0D00A446AA
:105AD000012463446442DC40A44661460400014260
